{
  "_format": "hh-sol-artifact-1",
  "contractName": "Voting",
  "sourceName": "contracts/Voting.sol",
  "abi": [
    {
      "inputs": [
        {
          "internalType": "string[]",
          "name": "initialCandidates",
          "type": "string[]"
        }
      ],
      "stateMutability": "nonpayable",
      "type": "constructor"
    },
    {
      "anonymous": false,
      "inputs": [
        {
          "indexed": true,
          "internalType": "uint256",
          "name": "candidateId",
          "type": "uint256"
        },
        {
          "indexed": false,
          "internalType": "string",
          "name": "name",
          "type": "string"
        }
      ],
      "name": "CandidateAdded",
      "type": "event"
    },
    {
      "anonymous": false,
      "inputs": [
        {
          "indexed": true,
          "internalType": "address",
          "name": "voter",
          "type": "address"
        },
        {
          "indexed": true,
          "internalType": "uint256",
          "name": "candidateId",
          "type": "uint256"
        }
      ],
      "name": "Voted",
      "type": "event"
    },
    {
      "anonymous": false,
      "inputs": [],
      "name": "VotingClosed",
      "type": "event"
    },
    {
      "anonymous": false,
      "inputs": [],
      "name": "VotingOpened",
      "type": "event"
    },
    {
      "inputs": [
        {
          "internalType": "string",
          "name": "name",
          "type": "string"
        }
      ],
      "name": "addCandidate",
      "outputs": [],
      "stateMutability": "nonpayable",
      "type": "function"
    },
    {
      "inputs": [],
      "name": "closeVoting",
      "outputs": [],
      "stateMutability": "nonpayable",
      "type": "function"
    },
    {
      "inputs": [],
      "name": "getAllCandidates",
      "outputs": [
        {
          "components": [
            {
              "internalType": "string",
              "name": "name",
              "type": "string"
            },
            {
              "internalType": "uint256",
              "name": "voteCount",
              "type": "uint256"
            }
          ],
          "internalType": "struct Voting.Candidate[]",
          "name": "",
          "type": "tuple[]"
        }
      ],
      "stateMutability": "view",
      "type": "function"
    },
    {
      "inputs": [
        {
          "internalType": "uint256",
          "name": "candidateId",
          "type": "uint256"
        }
      ],
      "name": "getCandidate",
      "outputs": [
        {
          "internalType": "string",
          "name": "name",
          "type": "string"
        },
        {
          "internalType": "uint256",
          "name": "voteCount",
          "type": "uint256"
        }
      ],
      "stateMutability": "view",
      "type": "function"
    },
    {
      "inputs": [],
      "name": "getCandidateCount",
      "outputs": [
        {
          "internalType": "uint256",
          "name": "",
          "type": "uint256"
        }
      ],
      "stateMutability": "view",
      "type": "function"
    },
    {
      "inputs": [
        {
          "internalType": "address",
          "name": "",
          "type": "address"
        }
      ],
      "name": "hasVoted",
      "outputs": [
        {
          "internalType": "bool",
          "name": "",
          "type": "bool"
        }
      ],
      "stateMutability": "view",
      "type": "function"
    },
    {
      "inputs": [],
      "name": "isOpen",
      "outputs": [
        {
          "internalType": "bool",
          "name": "",
          "type": "bool"
        }
      ],
      "stateMutability": "view",
      "type": "function"
    },
    {
      "inputs": [],
      "name": "openVoting",
      "outputs": [],
      "stateMutability": "nonpayable",
      "type": "function"
    },
    {
      "inputs": [],
      "name": "owner",
      "outputs": [
        {
          "internalType": "address",
          "name": "",
          "type": "address"
        }
      ],
      "stateMutability": "view",
      "type": "function"
    },
    {
      "inputs": [
        {
          "internalType": "uint256",
          "name": "candidateId",
          "type": "uint256"
        }
      ],
      "name": "vote",
      "outputs": [],
      "stateMutability": "nonpayable",
      "type": "function"
    }
  ],
  "bytecode": "0x60806040523480156200001157600080fd5b5060405162001145380380620011458339810160408190526200003491620001ff565b600080546001600160a01b031916331781555b815181101562000087576200007e8282815181106200006a576200006a6200032a565b60200260200101516200009c60201b60201c565b60010162000047565b50506000805460ff60a01b19169055620004fa565b6000815111620000df5760405162461bcd60e51b815260206004820152600a602482015269456d707479206e616d6560b01b604482015260640160405180910390fd5b604080518082019091528181526000602082018190526001805480820182559152815160029091027fb10e2d527612073b26eecdfd717e6a320cf44b4afac2b0732d9fcbe2b7fa0cf601908190620001389082620003d1565b506020919091015160019182015580546200015491906200049d565b7fe83b2a43e7e82d975c8a0a6d2f045153c869e111136a34d1889ab7b598e396a382604051620001859190620004c5565b60405180910390a250565b634e487b7160e01b600052604160045260246000fd5b604051601f8201601f191681016001600160401b0381118282101715620001d157620001d162000190565b604052919050565b60005b83811015620001f6578181015183820152602001620001dc565b50506000910152565b600060208083850312156200021357600080fd5b82516001600160401b03808211156200022b57600080fd5b8185019150601f86601f8401126200024257600080fd5b82518281111562000257576200025762000190565b8060051b62000268868201620001a6565b918252848101860191868101908a8411156200028357600080fd5b87870192505b838310156200031c57825186811115620002a35760008081fd5b8701603f81018c13620002b65760008081fd5b88810151604088821115620002cf57620002cf62000190565b620002e2828901601f19168c01620001a6565b8281528e82848601011115620002f85760008081fd5b62000309838d8301848701620001d9565b8552505050918701919087019062000289565b9a9950505050505050505050565b634e487b7160e01b600052603260045260246000fd5b600181811c908216806200035557607f821691505b6020821081036200037657634e487b7160e01b600052602260045260246000fd5b50919050565b601f821115620003cc576000816000526020600020601f850160051c81016020861015620003a75750805b601f850160051c820191505b81811015620003c857828155600101620003b3565b5050505b505050565b81516001600160401b03811115620003ed57620003ed62000190565b6200040581620003fe845462000340565b846200037c565b602080601f8311600181146200043d5760008415620004245750858301515b600019600386901b1c1916600185901b178555620003c8565b600085815260208120601f198616915b828110156200046e578886015182559484019460019091019084016200044d565b50858210156200048d5787850151600019600388901b60f8161c191681555b5050505050600190811b01905550565b81810381811115620004bf57634e487b7160e01b600052601160045260246000fd5b92915050565b6020815260008251806020840152620004e6816040850160208701620001d9565b601f01601f19169190910160400192915050565b610c3b806200050a6000396000f3fe608060405234801561001057600080fd5b506004361061009e5760003560e01c8063462e91ec11610066578063462e91ec1461013757806347535d7b1461014a5780638da5cb5b1461015e578063affc067014610189578063c631b2921461019157600080fd5b80630121b93f146100a357806309eef43e146100b85780632e6997fe146100f057806330a563471461010557806335b8e82014610116575b600080fd5b6100b66100b136600461087a565b610199565b005b6100db6100c6366004610893565b60026020526000908152604090205460ff1681565b60405190151581526020015b60405180910390f35b6100f8610305565b6040516100e79190610909565b6001546040519081526020016100e7565b61012961012436600461087a565b610400565b6040516100e7929190610981565b6100b66101453660046109a3565b610527565b6000546100db90600160a01b900460ff1681565b600054610171906001600160a01b031681565b6040516001600160a01b0390911681526020016100e7565b6100b66105e5565b6100b66106e7565b600054600160a01b900460ff166101ea5760405162461bcd60e51b815260206004820152601060248201526f159bdd1a5b99c81a5cc818db1bdcd95960821b60448201526064015b60405180910390fd5b3360009081526002602052604090205460ff161561023a5760405162461bcd60e51b815260206004820152600d60248201526c105b1c9958591e481d9bdd1959609a1b60448201526064016101e1565b600154811061027f5760405162461bcd60e51b8152602060048201526011602482015270496e76616c69642063616e64696461746560781b60448201526064016101e1565b336000908152600260205260409020805460ff1916600190811790915580548190839081106102b0576102b0610a15565b906000526020600020906002020160010160008282546102d09190610a41565b9091555050604051819033907f4d99b957a2bc29a30ebd96a7be8e68fe50a3c701db28a91436490b7d53870ca490600090a350565b60606001805480602002602001604051908101604052809291908181526020016000905b828210156103f7578382906000526020600020906002020160405180604001604052908160008201805461035c90610a5a565b80601f016020809104026020016040519081016040528092919081815260200182805461038890610a5a565b80156103d55780601f106103aa576101008083540402835291602001916103d5565b820191906000526020600020905b8154815290600101906020018083116103b857829003601f168201915b5050505050815260200160018201548152505081526020019060010190610329565b50505050905090565b600154606090600090831061044b5760405162461bcd60e51b8152602060048201526011602482015270496e76616c69642063616e64696461746560781b60448201526064016101e1565b60006001848154811061046057610460610a15565b906000526020600020906002020160405180604001604052908160008201805461048990610a5a565b80601f01602080910402602001604051908101604052809291908181526020018280546104b590610a5a565b80156105025780601f106104d757610100808354040283529160200191610502565b820191906000526020600020905b8154815290600101906020018083116104e557829003601f168201915b5050509183525050600191909101546020918201528151910151909590945092505050565b6000546001600160a01b031633146105515760405162461bcd60e51b81526004016101e190610a94565b600054600160a01b900460ff16156105a25760405162461bcd60e51b815260206004820152601460248201527321b0b713ba1030b232103bb434b6329037b832b760611b60448201526064016101e1565b6105e182828080601f01602080910402602001604051908101604052809392919081815260200183838082843760009201919091525061079192505050565b5050565b6000546001600160a01b0316331461060f5760405162461bcd60e51b81526004016101e190610a94565b600054600160a01b900460ff16156106585760405162461bcd60e51b815260206004820152600c60248201526b20b63932b0b23c9037b832b760a11b60448201526064016101e1565b600154600211156106ab5760405162461bcd60e51b815260206004820152601a60248201527f4e656564206174206c6561737420322063616e6469646174657300000000000060448201526064016101e1565b6000805460ff60a01b1916600160a01b1781556040517fa737faa632a36c00ccb4220893426e922f9442f1cab67acd8301f88a596d4abc9190a1565b6000546001600160a01b031633146107115760405162461bcd60e51b81526004016101e190610a94565b600054600160a01b900460ff1661075b5760405162461bcd60e51b815260206004820152600e60248201526d105b1c9958591e4818db1bdcd95960921b60448201526064016101e1565b6000805460ff60a01b191681556040517f66b6cb4a09abc3bf1cacc3c67420258856ffdad0deba9078cbd1658957b502189190a1565b60008151116107cf5760405162461bcd60e51b815260206004820152600a602482015269456d707479206e616d6560b01b60448201526064016101e1565b604080518082019091528181526000602082018190526001805480820182559152815160029091027fb10e2d527612073b26eecdfd717e6a320cf44b4afac2b0732d9fcbe2b7fa0cf6019081906108269082610b1f565b506020919091015160019182015580546108409190610bdf565b7fe83b2a43e7e82d975c8a0a6d2f045153c869e111136a34d1889ab7b598e396a38260405161086f9190610bf2565b60405180910390a250565b60006020828403121561088c57600080fd5b5035919050565b6000602082840312156108a557600080fd5b81356001600160a01b03811681146108bc57600080fd5b9392505050565b6000815180845260005b818110156108e9576020818501810151868301820152016108cd565b506000602082860101526020601f19601f83011685010191505092915050565b600060208083018184528085518083526040925060408601915060408160051b87010184880160005b8381101561097357888303603f1901855281518051878552610956888601826108c3565b918901519489019490945294870194925090860190600101610932565b509098975050505050505050565b60408152600061099460408301856108c3565b90508260208301529392505050565b600080602083850312156109b657600080fd5b823567ffffffffffffffff808211156109ce57600080fd5b818501915085601f8301126109e257600080fd5b8135818111156109f157600080fd5b866020828501011115610a0357600080fd5b60209290920196919550909350505050565b634e487b7160e01b600052603260045260246000fd5b634e487b7160e01b600052601160045260246000fd5b80820180821115610a5457610a54610a2b565b92915050565b600181811c90821680610a6e57607f821691505b602082108103610a8e57634e487b7160e01b600052602260045260246000fd5b50919050565b6020808252600a908201526927b7363c9037bbb732b960b11b604082015260600190565b634e487b7160e01b600052604160045260246000fd5b601f821115610b1a576000816000526020600020601f850160051c81016020861015610af75750805b601f850160051c820191505b81811015610b1657828155600101610b03565b5050505b505050565b815167ffffffffffffffff811115610b3957610b39610ab8565b610b4d81610b478454610a5a565b84610ace565b602080601f831160018114610b825760008415610b6a5750858301515b600019600386901b1c1916600185901b178555610b16565b600085815260208120601f198616915b82811015610bb157888601518255948401946001909101908401610b92565b5085821015610bcf5787850151600019600388901b60f8161c191681555b5050505050600190811b01905550565b81810381811115610a5457610a54610a2b565b6020815260006108bc60208301846108c356fea2646970667358221220693f33b176e3a2726c166caa094ee192d939ac70e13c2a398e86e8d2bcac09ff64736f6c63430008180033",
  "linkReferences": {},
  "deployedLinkReferences": {}
}